:100000000C943E000C945B000C940E030C945B006B
:100010000C945B000C945B000C945B000C945B00F4
:100020000C945B000C945B000C945B000C94B90383
:100030000C945B000C945B000C945B000C945B00D4
:100040000C945B000C945B000C945B000C945B00C4
:100050000C945B000C945B000C945B000C945B00B4
:100060000C945B000C945B000C945B000C945B00A4
:100070000C945B000C945B000C945B0011241FBE7D
:10008000CFEFD8E0DEBFCDBF11E0A0E0B1E0E0EC03
:10009000F6E202C005900D92A23CB107D9F721E02B
:1000A000A2ECB1E001C01D92AB3DB207E1F70E94A6
:1000B000420C0C9456130C9400000F931F93CF9393
:1000C000DF9300D000D000D0CDB7DEB784E090E061
:1000D0000E94500F2091C7013091C8013A832983B3
:1000E0002091C5013091C6013C832B832091C3012F
:1000F0003091C4013E832D83DE01119630E020E073
:1001000064E471E41FE44D915D91FC01E20FF31F83
:100110004C3201E0500788F010832F5F3F4F2330AF
:10012000310589F726960FB6F894DEBF0FBECDBF16
:10013000DF91CF911F910F91089544565109483C8A
:10014000510510F47083E9CF6083E7CFCF93DF933D
:100150000E945D00D82FC92F61E271E00E947510E6
:10016000892B41F48D2F9C2F0E94EC0F81E0DF91B1
:10017000CF91089565E271E08D2F9C2F0E9475103C
:10018000892B31F48D2F9C2F0E94EC0F82E0EFCF52
:1001900069E271E08D2F9C2F0E947510892B31F43C
:1001A0008D2F9C2F0E94EC0F83E0E1CF6DE271E078
:1001B0008D2F9C2F0E947510892B31F48D2F9C2F31
:1001C0000E94EC0F84E0D3CF61E371E08D2F9C2F70
:1001D0000E947510892B31F48D2F9C2F0E94EC0FFB
:1001E00085E0C5CF65E371E08D2F9C2F0E947510CF
:1001F000892B31F48D2F9C2F0E94EC0F86E0B7CF16
:100200008D2F9C2F0E94EC0F87E0B1CF0E94F60447
:1002100043EC51E065EC71E087EC91E00C94FD0457
:10022000CF93DF93D82FC92F6091C7017091C80178
:1002300050E040E00E9464076091C5017091C601E2
:1002400046E050E08D2F9C2F0E9464076091C3010F
:100250007091C4014CE050E08D2F9C2FDF91CF9125
:100260000C9464070F931F93CF93DF93D82FC92F5C
:10027000CB0121E040E069E371E00E94B2084AE569
:1002800050E06AE570E08D2F9C2F0E94040406E286
:1002900010E050E040E06FEF7FEF8D2F9C2F0E9429
:1002A0006A042FEF80E792E0215080409040E1F710
:1002B00000C000000150110961F72FEF89E698E1B5
:1002C000215080409040E1F700C0000006E210E0BD
:1002D00050E040E061E070E08D2F9C2F0E946A04A6
:1002E0002FEF80E792E0215080409040E1F700C07E
:1002F00000000150110961F72FEF83ED90E32150C9
:1003000080409040E1F700C00000DF91CF911F9145
:100310000F9108951F93CF93DF93D82FC92FCB014F
:1003200021E040E065E471E00E94B2084AE550E057
:100330006AE570E08D2F9C2F0E94040416E24FEFB7
:100340005FEF70E060E08D2F9C2F0E946A042FEF1A
:1003500080E792E0215080409040E1F700C000002B
:10036000115069F72FEF89E698E1215080409040C5
:10037000E1F700C0000016E241E050E070E060E00C
:100380008D2F9C2F0E946A042FEF80E792E021506E
:1003900080409040E1F700C00000115069F72FEF56
:1003A00083ED90E3215080409040E1F700C00000D1
:1003B000DF91CF911F910895CF93DF93D82FC92F4D
:1003C000CB0121E040E061E571E00E94B20842E328
:1003D00050E06EEC7FEF8D2F9C2F0E9404042FEFD6
:1003E00089E698E1215080409040E1F700C000008C
:1003F00042E450E062E470E08D2F9C2F0E940404E0
:100400002FEF83ED90E3215080409040E1F700C052
:1004100000004EEC5FEF62E370E08D2F9C2F0E9496
:1004200004042FEF89E698E1215080409040E1F7E5
:1004300000C000004EE450E06EE470E08D2F9C2F71
:100440000E9404042FEF83ED90E321508040904000
:10045000E1F700C00000DF91CF910895CF93DF93C3
:10046000D82FC92FCB0121E040E06DE571E00E945B
:10047000B2084EEC5FEF62E370E08D2F9C2F0E947C
:1004800004042FEF89E698E1215080409040E1F785
:1004900000C0000042E450E062E470E08D2F9C2F29
:1004A0000E9404042FEF83ED90E3215080409040A0
:1004B000E1F700C0000042E350E06EEC7FEF8D2FCB
:1004C0009C2F0E9404042FEF89E698E12150804080
:1004D0009040E1F700C000004EE450E06EE470E0B0
:1004E0008D2F9C2F0E9404042FEF83ED90E3215069
:1004F00080409040E1F700C00000DF91CF91089567
:100500001F93CF93DF93D82FC92FCB0121E040E079
:1005100069E671E00E94B2084EEC5FEF62E370E0C2
:100520008D2F9C2F0E9404042FEF83ED90E3215028
:1005300080409040E1F700C0000050E040E070E0F3
:1005400060E08D2F9C2F0E94040415E143E050E0F1
:1005500063E070E08D2F9C2F0E946A042FE38DE0F2
:1005600093E0215080409040E1F700C0000011501E
:1005700069F72FEF83ED90E3215080409040E1F741
:1005800000C00000DF91CF911F9108951F93CF937A
:10059000DF93D82FC92FCB0121E040E065E771E060
:1005A0000E94B2084AE550E06AE570E08D2F9C2F6A
:1005B0000E94040417E049EF5FEF69EF7FEF8D2F92
:1005C0009C2F0E946A042FEF84E39CE0215080401E
:1005D0009040E1F700C00000115069F7DF91CF9122
:1005E0001F910895CB0121E040E061E871E00E9495
:1005F000B2082FEF83ED90E3215080409040E1F767
:1006000000C000000895F89487EF8AB98FEF87B98A
:100610008EEF84B988EF81B9789408951F920F9274
:100620000FB60F9211242F933F934F935F936F93C5
:100630007F938F939F93AF93BF93EF93FF93F89420
:100640000E94A6008093C2018091CF019091D001B9
:1006500080936F008091CD019091CE0180937000C6
:100660008091CB019091CC01809380008091C90151
:100670009091CA018093B0007894FF91EF91BF915F
:10068000AF919F918F917F916F915F914F913F912A
:100690002F910F900FBE0F901F901895089542B99B
:1006A00068B90895FB0177FF03C0F195E195F10961
:1006B0009A0157FF03C031952195310970E060E040
:1006C000E436F1052CF4CF016AE070E00E94190DC8
:1006D000655F7E4FDB018C918093D10190E080E0DB
:1006E000E436F1052CF4CF016AE070E00E94190DA8
:1006F000855F9E4FFC0180818093D20182E08093D0
:10070000D30170E060E0243631052CF4C9016AE0C1
:1007100070E00E94190D655F7E4FDB018C91809324
:10072000D40190E080E0243631052CF4C9016AE060
:1007300070E00E94190D855F9E4FFC0180818093BF
:10074000D50108959C010A9728F4255F3E4FF901D1
:100750008081089580E00895F894E1EBF0E08081D5
:1007600084608083E0E7F0E080818160808378941A
:1007700008951F921FB61F9211248F93EF93FF933A
:10078000E091D601F0E0E050FF4F808182B9E09126
:10079000D601F0E0EF52FE4F808188B98091D601FA
:1007A0008F5F8093D6018091D601853010F0109232
:1007B000D60117BAFF91EF918F911F901FBE1F9026
:1007C00018958436910528F46AE070E00E94190DAE
:1007D000089590E080E008958436910530F46AE051
:1007E00070E00E94190DCB01089590E080E008951B
:1007F000FC01DB018C918083DA018C91818313826F
:100800001282158214820895CF92DF92EF92FF92A6
:100810000F931F93CF93DF9300D00F92CDB7DEB726
:100820008C016B017A01CE0103960E944E03F80100
:10083000D582C482F382E282B601D7FE04C0662765
:1008400077276C197D09C8010E94250AB701F7FEB8
:1008500004C0662777276E197F09C80101960E9498
:10086000250A61E0CE0102960E945B0B60E0CE019A
:1008700001960E945B0BF80142815381648175816E
:10088000CE0103960E945203CE010196D7FE1CC0F2
:100890000E94620BCE010296F7FE19C00E94620B05
:1008A000CE0101960E945E0BCE0102960E945E0B65
:1008B0000F900F900F90DF91CF911F910F91FF90AC
:1008C000EF90DF90CF9008950E94700BE3CF0E94CD
:1008D000700BE6CFCF92DF92EF92FF920F931F93B0
:1008E000CF93DF9300D00F92CDB7DEB78C017B01A1
:1008F0006A01CE0103960E944E03F8018281938122
:100900008C0D9D1D93838283648175816E0D7F1D87
:100910007583648377FF03C0719561957109C80180
:100920000E94250AF8016281738177FF03C07195E7
:1009300061957109C80101960E94250A61E0CE0106
:1009400002960E945B0B60E0CE0101960E945B0B59
:10095000F8014281538164817581CE0103960E9422
:100960005203F8018481958197FF21C0CE01019641
:100970000E94620BF8018281938197FF1DC0CE0116
:1009800002960E94620BCE0101960E945E0BCE0180
:1009900002960E945E0B0F900F900F90DF91CF9107
:1009A0001F910F91FF90EF90DF90CF900895CE01AF
:1009B00001960E94700BDECFCE0102960E94700B52
:1009C000E2CFCF93DF93EC0160E00E94250A60E064
:1009D000CE010196DF91CF910C94250AFC01848110
:1009E00095810895FC01828193810895289A8AE176
:1009F0008A95F1F700C0289808952F923F924F9260
:100A00005F926F927F928F929F92AF92BF92CF929E
:100A1000DF92EF92FF920F931F93CF93DF93CDB7A7
:100A2000DEB7A4970FB6F894DEBF0FBECDBF8F8F91
:100A300098A369A37AA34BA35CA30E94F60480B198
:100A40008770E9F3F894F12CE12CD12CC12C10E043
:100A500000E080B1877099F0009B02C00F5F1F4FCC
:100A6000019B03C02FEFC21AD20A029B03C03FEFC3
:100A7000E31AF30A4AE14A95F1F700C0EACF789405
:100A80001E870D87D88ACF86FA8AE98A3E015DE003
:100A9000650E711C1E0183E1280E311CF3019801C3
:100AA000819191918217930748F42D853E859E8709
:100AB0008D87DF0112972D933C939C012E163F06E4
:100AC00079F78F85988929893A892817390720F479
:100AD000388B2F879A8B898B8CE0E5E1F1E0DE0182
:100AE000119601900D928A95E1F72D853E858F84B0
:100AF0009888C401821B930B880F991F2901440C0D
:100B0000551C420E531E480E591E920150E040E003
:100B10002B8B3C8B4D8B5E8BCA01B2010E94550E14
:100B20006F8B7B8F5C01C401B0E0A0E08B8B9C8B52
:100B3000AD8BBE8BB401CD010E94550E9B01AC0163
:100B40009F899B8BAB8DAC8BAD8ABE8A6B897C8970
:100B50008D899E890E94B40D6D837E838F839887D3
:100B6000A988BA88C50188199909480E591E9201A9
:100B700050E040E02B8B3C8B4D8B5E8BCA01B20169
:100B80000E94550E2B014C01C501B0E0A0E08B8BFB
:100B90009C8BAD8BBE8BB501CD010E94550E9B0188
:100BA000AC014B8A5C8A8D8A9E8A6B897C898D898F
:100BB0009E890E94B40D69877A878B879C87FE0186
:100BC00031961B8E1C8E1D8E1E8E1F8A188E198EBE
:100BD0001A8E1B8A1C8A1D8A1E8AD3018D919D91B3
:100BE0003D018017910741F4208131814281538179
:100BF0002B8B3C8B4D8B5E8B8C159D0541F420819E
:100C00003181428153812F8B388F498F5A8F8E15B6
:100C10009F0541F480819181A281B3818B8F9C8F4C
:100C2000AD8FBE8F349626143704B9F62B893C89D4
:100C30004D895E89CA01B9010E94480D20E030E06B
:100C400040E551E46B8B7C8B8D8B9E8B6B897C8913
:100C50008D899E890E94480D20E030E040E05EE3EF
:100C60006B8B7C8B8D8B9E8B6B897C898D899E8910
:100C70000E94E30E20E030E040E251E46B8B7C8B7D
:100C80008D8B9E8B6B897C898D899E890E94480DF6
:100C90004B015C01980150E040E02B8B3C8B4D8B6D
:100CA0005E8BCA01B8010E94550E9B01AC018B8A74
:100CB0009C8AAD8ABE8A6B897C898D899E890E94B7
:100CC000E30E20E030E048E652E46B8B7C8B8D8BAA
:100CD0009E8B6B897C898D899E890E94B40D6B8B5C
:100CE0007C8B8D8B9E8B6B897C898D899E890E94E4
:100CF000260EAF8DB8A16D937C932F89388D498DC9
:100D00005A8DCA01B9010E94480D20E030E040E54B
:100D100051E46B8B7C8B8D8B9E8B6B897C898D8951
:100D20009E890E94480D20E030E040E05EE36B8B3E
:100D30007C8B8D8B9E8B6B897C898D899E890E9493
:100D4000E30E20E030E040E251E46B8B7C8B8D8B36
:100D50009E8B6B897C898D899E890E94480D5B01E1
:100D60008C01960150E040E02B8B3C8B4D8B5E8BD1
:100D7000CA01B6010E94550E9B01AC01AB8ABC8A28
:100D80000D8B1E8B6B897C898D899E890E94E30E59
:100D900020E030E048E652E46B8B7C8B8D8B9E8BA1
:100DA0006B897C898D899E890E94B40D6B8B7C8BAD
:100DB0008D8B9E8B6B897C898D899E890E94260EE6
:100DC000A9A1BAA16D937C932B8D3C8D4D8D5E8D29
:100DD000CA01B9010E94480D20E030E040E551E42D
:100DE0006B8B7C8B8D8B9E8B6B897C898D899E898F
:100DF0000E94480D20E030E040E05EE36B8B7C8B8E
:100E00008D8B9E8B6B897C898D899E890E94E30ED8
:100E100020E030E040E251E46B8B7C8B8D8B9E8B2D
:100E20006B897C898D899E890E94480D6B018C019C
:100E3000970150E040E02B8B3C8B4D8B5E8BCA01C1
:100E4000B7010E94550E9B01AC01CB8ADC8A0D8B49
:100E50001E8B6B897C898D899E890E94E30E20E020
:100E600030E048E652E46B8B7C8B8D8B9E8B6B89DC
:100E70007C898D899E890E94B40D6B8B7C8B8D8BB8
:100E80009E8B6B897C898D899E890E94260EABA1E1
:100E9000BCA16D937C93A4960FB6F894DEBF0FBEF1
:100EA000CDBFDF91CF911F910F91FF90EF90DF9019
:100EB000CF90BF90AF909F908F907F906F905F90FA
:100EC0004F903F902F900895DF92EF92FF920F93F3
:100ED0001F93CF93DF9300D000D00F92CDB7DEB732
:100EE000D82E092F7B01142FCB0164E670E00E94FD
:100EF000190D605D69832EE22A836AE070E00E942A
:100F0000190D605D6B838DE68C831D8220E0BE0130
:100F10006F5F7F4F8D2D902F0E94B20860E1610FAF
:100F200084E6E816F104A8F48D2D902F0E947F0925
:100F300069E971E00E9464090F900F900F900F9083
:100F40000F90DF91CF911F910F91FF90EF90DF9065
:100F5000089584E6E81AF10888ECE816F10438F4FC
:100F60008D2D902F0E947F096EE971E0E3CF8D2DCA
:100F7000902F0E947F0963EA71E0DCCFCF93DF936B
:100F8000EC01CB01BA01188219821A821B824C83B0
:100F90007D83188619860E94FD0A4C815D8160E080
:100FA00081E00E94B60A80E190E00E94500F9F838A
:100FB0008E83DF91CF910895FC01868197810C94F7
:100FC000EC0F1F93CF93DF93EC01162F2C813D8103
:100FD000462F6B8181E00E94BE0A1A83DF91CF9178
:100FE0001F9108951F93CF93DF93EC01162F2C814F
:100FF0003D814A8181E00E94BE0A1B83DF91CF912F
:101000001F910895FC01862F603248F4618364814A
:101010007581803110F40C94F00A805DFCCF089546
:10102000CF93DF93EC018C819D810E94AA0A1882E4
:101030006981CE01DF91CF910C9402086F927F926B
:101040008F929F92AF92BF92CF92DF92EF92FF92D8
:101050000F931F93CF93DF93EC018B01F42EE22EBD
:10106000CB010E94F30B6C017A808B8060E0CE0193
:101070000E94E10760E0CE010E94F207EE2019F025
:10108000CE010E9410082FE12F1508F45CC08F2DAF
:1010900090E0A601552720E230E0281B390BC2164C
:1010A000130611F00CF04FC09C2C6C817D81EFE099
:1010B000EF1548F1840F951FEC2C40971CF080E150
:1010C000E82EEF188F2D0E94F00A602E58016C81D7
:1010D0007D818A2D86198E1530F4F50181915F018D
:1010E0000E94F70AF4CF80E40E94F00A0E0D111D51
:1010F000E914D8F46C817D81F80181918F010E94FF
:10110000F70AE394F5CF80E38F0D0E94F00AE02EFA
:1011100058018A2D8E19891540F46C817D81F50165
:1011200081915F010E94F70AF4CF6981CE010E948C
:101130000208672DCE010E94E107682DCE010E94B2
:10114000F207FC0CF882DF91CF911F910F91FF9075
:10115000EF90DF90CF90BF90AF909F908F907F9057
:101160006F9008956115710511F00C941E08089593
:101170000F931F93CF93DF9300D0CDB7DEB78C01D1
:101180001A82698320E0FC014081BE016F5F7F4FBE
:101190000E941E08C8010F900F90DF91CF911F9100
:1011A0000F910895EF92FF920F931F93CF93DF93C8
:1011B0008C01862FEA016830B8F42097A9F0F80175
:1011C00064817581880F880F880F0E94E80A7E016C
:1011D000F8E0EF0EF11CF8016481758189910E949D
:1011E000F70ACE15DF05B9F7DF91CF911F910F9167
:1011F000FF90EF900895CF93DF93EC01CB01892B03
:1012000029F020E04881CE010E94B208CE01DF9192
:10121000CF910895CF93DF93EC017F936F9388EA8A
:1012200091E09F938F938F818F938E818F930E94F4
:101230007E106E817F81CE010E94FB080F900F907F
:101240000F900F900F900F90CE01DF91CF910895E6
:10125000CF93DF93EC017F936F938BEA91E09F93A1
:101260008F938F818F938E818F930E947E106E81DA
:101270007F81CE010E94FB080F900F900F900F907E
:101280000F900F90CE01DF91CF910895CF93DF9310
:10129000EC011F926F938EEA91E09F938F938F8161
:1012A0008F938E818F930E947E106E817F81CE01FD
:1012B0000E94FB080F900F900F900F900F900F90CF
:1012C000CE01DF91CF9108950F931F93CF93DF93BA
:1012D000EC018B016115710561F0288581E02827FB
:1012E0004985CE010E94B2088885882311F01886AE
:1012F0001986C801DF91CF911F910F910895FC01CC
:10130000603218F4618781E08087CF0108950F93E0
:101310001F93CF93DF93EC018881082F681708F49F
:10132000062F801B888310E0101731F060E2CE0199
:101330000E94B8081F5FF8CF8881811B8883DF91E6
:10134000CF911F910F9108950895F894E89A623013
:1013500059F0633069F0613029F48091690081604F
:101360008093690078940895809169008260F8CF35
:10137000809169008360F4CFF894E99A623059F063
:10138000633069F0613029F4809169008460809352
:10139000690078940895809169008860F8CF809101
:1013A00069008C60F4CFF894EA9A623059F06330A7
:1013B00069F0613029F4809169008061809369004F
:1013C00078940895809169008062F8CF80916900D7
:1013D0008063F4CFE09A0895E19A0895E29A08951F
:1013E00099B1EFE1FEE43197F1F700C0000089B157
:1013F00092FF04C082FB882780F9089580E0089559
:10140000FC016083603179F0603299F08091800056
:101410008160809380008091810082608093810050
:1014200010928200089580918000806280938000F5
:10143000EDCF809180008068F9CF089510928000F0
:1014400010928100109282000895FC018081803109
:1014500019F0803271F00895FFEF6F9FC0011124E1
:1014600064E670E00E942D0D70938B0060938A00FB
:1014700008952FEF629FC001112464E670E00E947E
:101480002D0D709389006093880008951092850057
:101490001092840070E07093890060938800E0E807
:1014A000F0E0808188688083E1E8F0E080818560F9
:1014B000808310928200EFE6F0E08081826080837A
:1014C0000895FC0180818062808384E08A95F1F731
:1014D00080818F7D80830895DF92EF92FF920F933A
:1014E0001F93CF93DF93D42EE901062F10E090E8ED
:1014F000899F700111248881817288838881980175
:1015000094E0359527959A95E1F7220F331F2E2900
:10151000282B2883CE010E94610A888181728883EA
:101520008881000F111F0E710E29082B0883CE0130
:101530000E94610A80E09AE19A95F1F700C08F5FFE
:10154000D812F9CFDF91CF911F910F91FF90EF90BB
:10155000DF9008959C0144EA61E080E00C946C0AFD
:101560009C0144EA62E080E00C946C0A9A01880FC6
:10157000682B646044E080E00C946C0A54E0859F22
:10158000C0011124482B660F642B686044E080E0A2
:101590000C946C0A9A0148E0849FC001112444E035
:1015A000649FB0011124682B606144E080E00C94DA
:1015B0006C0A9A0140E1849FC001112448E0649FB5
:1015C000B0011124682B606244E080E00C946C0A46
:1015D0009B018F77682F606444E080E00C946C0A74
:1015E0009B01682F606844E080E00C946C0A9B01CA
:1015F00044E0682F81E00C946C0ACF93DF93FC01E8
:10160000EB018FE295E70197F1F700C000008081C0
:101610008172808380818FEF80838881817288834B
:1016200088818660888388818E7F8883CB010E9431
:10163000610A87E090E20197F1F700C00000CE0157
:101640000E94610A87EC90E00197F1F700C000006A
:10165000CE010E94610A9AE69A95F1F700C088814E
:1016600081728883888184608883CE010E94610AA8
:101670008AE68A95F1F700C09E0144E06CE280E0C2
:101680000E946C0A9E0140E060E080E00E94BE0A79
:10169000CE010E94AA0AAE0160E081E00E94B60A73
:1016A0009E0140E060E081E0DF91CF910C94BE0AA2
:1016B000FC0110820895FC016083089508958BB1A8
:1016C0001BB80895FC018081813029F48BB18B77A0
:1016D0008BB95F9A08958BB18C7F8BB9599A089515
:1016E000FC018081813029F48BB18B778BB95A9AB8
:1016F00008958BB18C7F8BB9589A0895FC01808135
:101700008130A9F48BB18B778BB95A9A8FE097E22D
:101710000197F1F700C000008BB18B778BB95F9A0E
:10172000EFE0F7E23197F1F700C0000008958BB1C8
:101730008C7F8BB9599A8FE097E20197F1F700C03F
:1017400000008BB18C7F8BB9589AEACFCF92DF9291
:10175000EF92FF921F93CF93DF93182FD92FC62FAD
:10176000433099F4862F6AE00E940D0DC82ED12CCB
:10177000F12CE12CEC14FD0474F5812F9D2F0E94B7
:101780007E0B8FEFE81AF80AF5CF423081F40E9401
:10179000620B90E080E0D0E08C179D07E4F4EFEC62
:1017A000F7E03197F1F700C000000196F5CF413026
:1017B00081F40E94700B90E080E0D0E08C179D07D0
:1017C00054F4EFECF7E03197F1F700C00000019618
:1017D000F5CF8BB11BB8DF91CF911F91FF90EF90A8
:1017E000DF90CF9008959C0190E080E00196F90190
:1017F000E80FF91F40814111F9CF0895EF92FF9250
:101800000F931F93CF93DF93EC01FB011F8630975B
:1018100001F17C018FE0E80EF11C2EE0042F10E0B6
:10182000CF01B8010E94190DDC01AF54BE4F8C915D
:10183000D7018E937D012150CF01FB0180179107C5
:1018400010F02111EDCF822F90E001968C0F9D1F9B
:1018500003C00E9620E32E87DF91CF911F910F9149
:10186000FF90EF9008959C0190E080E0821793072D
:1018700041F0EFECF7E03197F1F700C0000001967E
:10188000F5CF0895CDB7DEB765970FB6F894DEBFF4
:101890000FBECDBFF8940E940303CE0145960E946F
:1018A0004E03CE0145960E94AC0345E250E064E24F
:1018B00070E0CE0101960E94BE0760E1CE01449621
:1018C0000E94000A60E2CE0143960E94000A8B89C2
:1018D000898B8C898A8BAE014F5E5F4FBE016E5E35
:1018E0007F4FCE010B960E94F803CE0142960E94D4
:1018F0001D0ACE0141960E941D0ACE0141960E940A
:10190000A40962E0CE0141960E94BC0980916F005B
:1019100090E09093D0018093CF018091700090E08F
:101920009093CE018093CD018091800090E09093C0
:10193000CC018093CB018091B00090E09093CA01DC
:101940008093C9017894E091C201E830F0F7F0E0AB
:10195000E85AFC4E0C94410D10926F0010927000EA
:101960000E940601CE0101960E9410011BB818B812
:1019700082B1877082B9109280001092B0002FE778
:101980008AE196E0215080409040E1F700C00000DD
:10199000DACFBE016F5F7F4FCE010B960E943201FE
:1019A000CE0101960E9410081092C201CCCFBE0158
:1019B0006F5F7F4FCE010B960E948A01F1CFBE016F
:1019C0006F5F7F4FCE010B960E94DC01E9CFBE0115
:1019D0006F5F7F4FCE010B960E942E02E1CFAE01CA
:1019E0004B5E5F4FBE016F5F7F4FCE010B960E9433
:1019F0008002D6CFAE014B5E5F4FBE016F5F7F4F5F
:101A0000CE010B960E94C602CBCFBE016F5F7F4F07
:101A1000CE010B960E94F202C3CF991B79E004C05D
:101A2000991F961708F0961B881F7A95C9F780951D
:101A30000895AA1BBB1B51E107C0AA1FBB1FA61715
:101A4000B70710F0A61BB70B881F991F5A95A9F767
:101A500080959095BC01CD01089597FB072E16F453
:101A6000009407D077FD09D00E94190D07FC05D01E
:101A70003EF4909581959F4F0895709561957F4FA5
:101A80000895EE0FFF1F0590F491E02D0994505832
:101A9000BB27AA270E945F0D0C94A90E0E949B0EE3
:101AA00038F00E94A20E20F039F49F3F19F426F47A
:101AB0000C94980E0EF4E095E7FB0C94920EE92F2F
:101AC0000E94BA0E58F3BA17620773078407950786
:101AD00020F079F4A6F50C94DC0E0EF4E0950B2EB4
:101AE000BA2FA02D0B01B90190010C01CA01A00170
:101AF0001124FF27591B99F0593F50F4503E68F1CB
:101B00001A16F040A22F232F342F4427585FF3CF0B
:101B1000469537952795A795F0405395C9F77EF4DC
:101B20001F16BA0B620B730B840BBAF09150A1F025
:101B3000FF0FBB1F661F771F881FC2F70EC0BA0FAB
:101B4000621F731F841F48F4879577956795B79533
:101B5000F7959E3F08F0B0CF9395880F08F099272E
:101B6000EE0F9795879508950E94C80D0C94A90EC5
:101B70000E94A20E58F00E949B0E40F029F45F3F95
:101B800029F00C94920E51110C94DD0E0C94980EC9
:101B90000E94BA0E68F39923B1F3552391F3951B74
:101BA000550BBB27AA2762177307840738F09F5F7E
:101BB0005F4F220F331F441FAA1FA9F335D00E2EEB
:101BC0003AF0E0E832D091505040E695001CCAF758
:101BD0002BD0FE2F29D0660F771F881FBB1F26171B
:101BE00037074807AB07B0E809F0BB0B802DBF01F2
:101BF000FF2793585F4F3AF09E3F510578F00C94C1
:101C0000920E0C94DD0E5F3FE4F3983ED4F386957C
:101C100077956795B795F7959F5FC9F7880F911DE1
:101C20009695879597F90895E1E0660F771F881FCD
:101C3000BB1F621773078407BA0720F0621B730B80
:101C4000840BBA0BEE1F88F7E09508950E94C20E30
:101C500088F09F5798F0B92F9927B751B0F0E1F06D
:101C6000660F771F881F991F1AF0BA95C9F714C01D
:101C7000B13091F00E94DC0EB1E008950C94DC0EBE
:101C8000672F782F8827B85F39F0B93FCCF3869556
:101C900077956795B395D9F73EF4909580957095B3
:101CA00061957F4F8F4F9F4F0895E89409C097FB30
:101CB0003EF490958095709561957F4F8F4F9F4F23
:101CC0009923A9F0F92F96E9BB279395F695879567
:101CD00077956795B795F111F8CFFAF4BB0F11F42A
:101CE00060FF1BC06F5F7F4F8F4F9F4F16C08823D1
:101CF00011F096E911C0772321F09EE8872F762F07
:101D000005C0662371F096E8862F70E060E02AF047
:101D10009A95660F771F881FDAF7880F9695879533
:101D200097F9089597F99F6780E870E060E008955B
:101D30009FEF80EC089500240A94161617061806E3
:101D40000906089500240A941216130614060506BF
:101D50000895092E0394000C11F4882352F0BB0F50
:101D600040F4BF2B11F460FF04C06F5F7F4F8F4FB3
:101D70009F4F089557FD9058440F551F59F05F3FEE
:101D800071F04795880F97FB991F61F09F3F79F09D
:101D900087950895121613061406551FF2CF46951F
:101DA000F1DF08C0161617061806991FF1CF8695A1
:101DB0007105610508940895E894BB276627772785
:101DC000CB0197F908950E94F60E0C94A90E0E947B
:101DD0009B0E38F00E94A20E20F0952311F00C9477
:101DE000920E0C94980E11240C94DD0E0E94BA0EE3
:101DF00070F3959FC1F3950F50E0551F629FF0015E
:101E0000729FBB27F00DB11D639FAA27F00DB11D76
:101E1000AA1F649F6627B00DA11D661F829F2227FF
:101E2000B00DA11D621F739FB00DA11D621F839F86
:101E3000A00D611D221F749F3327A00D611D231F5C
:101E4000849F600D211D822F762F6A2F11249F57AA
:101E500050409AF0F1F088234AF0EE0FFF1FBB1FAD
:101E6000661F771F881F91505040A9F79E3F51056C
:101E700080F00C94920E0C94DD0E5F3FE4F3983EDC
:101E8000D4F3869577956795B795F795E7959F5F16
:101E9000C1F7FE2B880F911D9695879597F90895A8
:101EA0000F931F93CF93DF938230910510F482E05C
:101EB00090E0E091D901F091DA0130E020E0B0E06B
:101EC000A0E0309799F42115310509F44AC0281B88
:101ED000390B24303105D8F58A819B816115710554
:101EE00089F1FB0193838283FE0111C040815181FE
:101EF0000281138148175907E0F04817590799F4F0
:101F0000109761F012960C93129713961C933296C9
:101F1000CF01DF91CF911F910F9108950093D901C7
:101F20001093DA01F4CF2115310551F04217530710
:101F300038F0A901DB019A01BD01DF01F801C1CF31
:101F4000EF01F9CF9093DA018093D901CDCFFE0153
:101F5000E20FF31F81939193225031093983288333
:101F6000D7CF2091D7013091D801232B41F4209174
:101F70000701309108013093D8012093D7012091B7
:101F80000501309106012115310541F42DB73EB709
:101F90004091090150910A01241B350BE091D701B2
:101FA000F091D801E217F307A0F42E1B3F0B28177E
:101FB000390778F0AC014E5F5F4F2417350748F0C2
:101FC0004E0F5F1F5093D8014093D7018193919397
:101FD0009FCFF0E0E0E09CCFCF93DF930097E9F054
:101FE000FC01329713821282A091D901B091DA01DB
:101FF000ED0130E020E01097A1F420813181820FC3
:10200000931F2091D7013091D8012817390709F083
:1020100061C0F093D801E093D701DF91CF9108958B
:10202000EA01CE17DF07E8F54A815B819E01411581
:102030005105B1F7E901FB83EA8349915991C40F36
:10204000D51FEC17FD0761F4808191810296840F02
:10205000951FE90199838883828193819B838A8379
:10206000F0E0E0E012968D919C9113970097B9F5FE
:102070002D913C911197CD010296820F931F2091D3
:10208000D7013091D8012817390739F6309751F523
:102090001092DA011092D901B093D801A093D70120
:1020A000BCCFD383C28340815181840F951FC81751
:1020B000D90761F44E5F5F4F88819981480F591F9E
:1020C000518340838A819B819383828321153105CB
:1020D00009F0B0CFF093DA01E093D9019ECFFD0172
:1020E000DC01C0CF13821282D7CFFB01DC018D91BE
:1020F000019080190110D9F3990B0895AEE0B0E07A
:10210000E4E8F0E10C942D130D891E8986E08C83A0
:102110001A8309838FEF9FE79E838D83AE01475E0D
:102120005F4F6F89788DCE0101960E94A1102F819B
:102130003885020F131FF80110822E96E4E00C94EC
:102140004913ABE0B0E0E7EAF0E10C941F137C0127
:102150003B018A01FC0117821682838181FFC8C17D
:10216000CE0101965C01F7019381F30193FD859106
:1021700093FF81913F01882309F453C1853239F4DB
:1021800093FD859193FF81913F01853229F4B70139
:1021900090E00E949112E7CF912C212C312CFFE18D
:1021A000F31538F08B3211F190F4803209F183325B
:1021B00029F137FC3CC020ED280F2A3050F536FEBF
:1021C00020C08AE0989E200D1124922E06C08D32E8
:1021D00091F0803371F7689430F8F30193FD8591A5
:1021E00093FF81913F018111DACF21C0689431F8CA
:1021F000689432F8F2CF689433F8EFCF689434F8EB
:10220000ECCFEAE02E9E200D1124222E689435F8A2
:10221000E4CF8E3229F436FC04C1689436F8DDCF61
:102220008C3619F4689437F8D8CF8836B1F2982FE5
:102230009F7D95549330E0F08336A1F18337C1F14F
:10224000833509F063C02801F2E04F0E511CF801FC
:10225000C080D180692D70E036FC02C06FEF7FEF47
:10226000C6010E947B124C01689437F882010AC0B3
:102270000C5F1F4FFFE3F98388248394912C650141
:10228000E89437F833FE2DC0522C8114910471F577
:10229000552009F468CFB70180E290E00E949112C6
:1022A0005A94F6CFF801808189830E5F1F4FE4CFE7
:1022B0002801F2E04F0E511CF801C080D180692D39
:1022C00070E036FC02C06FEF7FEFC6010E948612FD
:1022D0004C018201D5CFB70180E290E00E949112BB
:1022E0002A942814190409F0B0F7CECFF60137FC70
:1022F000859137FE81916F01B70190E00E949112A4
:1023000051105A94F1E08F1A9108BFCF843619F01A
:10231000893609F077C0F80137FE6BC060817181A2
:10232000828193810C5F1F4FF32DFF763F2E97FF25
:1023300009C090958095709561957F4F8F4F9F4F05
:10234000689437F82AE030E0A5010E94C112C82E37
:10235000CA188C2C432C36FE0CC0E89440F8C914E3
:1023600040F434FE05C032FC03C0F32DFE7E4F2E38
:10237000892C44FE95C0FE01EC0DF11D8081803357
:1023800009F087C0242D297E422E842D8870582E76
:1023900043FC95C040FE8FC09C2C821418F42C0C7A
:1023A000922C981844FE91C0B70180E390E00E94FF
:1023B000911242FE09C088E790E041FE02C088E524
:1023C00090E0B7010E949112C91408F48AC0CA941F
:1023D000D12C9FEFC91AD90ACA0CDB1CF6018291D5
:1023E0006F01B70190E00E949112AC14BD04B1F7E7
:1023F0004FCF60817181072E000C880B990B0E5F07
:102400001F4F92CFD32CE894D4F82AE030E08537E0
:1024100039F1232D297FD22E8F3601F148F48835EA
:10242000A9F0F701868197812B96E2E10C943B138A
:10243000803749F08837A9F7D4FE02C06894D2F8F3
:1024400020E130E00DC06894D4F8F6CF34FE03C02C
:10245000822F8660D82E20E132E002C028E030E0F2
:10246000F801D7FE0FC060817181828193810C5F7A
:102470001F4FA5010E94C112C82ECA183D2CE89416
:1024800037F867CF6081718190E080E00E5F1F4F69
:10249000F0CF42FC02C0839478CF8394839475CFAD
:1024A000842D867809F471CFF6CFB70180E290E0F1
:1024B0000E94911283948214C0F3512C73CF522C3A
:1024C0005818821408F46ECFF8CF842D867809F45A
:1024D0007BCF8BE241FE80E247FC8DE2B70190E0CA
:1024E00071CFB70180E390E00E9491129A946CCF73
:1024F0008FEF9FEF99CFFC01059061507040011064
:10250000D8F7809590958E0F9F1F0895FC0161501C
:10251000704001900110D8F7809590958E0F9F1F05
:1025200008950F931F93CF93DF93182F092FEB017B
:102530008B8181FD09C01FEF0FEF812F902FDF915D
:10254000CF911F910F91089582FF14C02E813F817A
:102550008C819D81281739073CF4E881F981CF01EE
:1025600001969983888310838E819F8101969F8332
:102570008E83E3CFE885F985812F0995892BA1F317
:10258000DACFFA01AA27283051F1203181F1E894FD
:102590006F936E7F6E5F7F4F8F4F9F4FAF4FB1E056
:1025A0003ED0B4E03CD0670F781F891F9A1FA11D51
:1025B000680F791F8A1F911DA11D6A0F711D811D52
:1025C000911DA11D20D009F468943F912AE0269F17
:1025D00011243019305D3193DEF6CF010895462F76
:1025E0004770405D4193B3E00FD0C9F7F6CF462F57
:1025F0004F70405D4A3318F0495D31FD40524193C0
:1026000002D0A9F7EACFB4E0A6959795879577957C
:102610006795BA95C9F700976105710508959B0103
:10262000AC010A2E06945795479537952795BA958C
:10263000C9F7620F731F841F951FA01D08952F9265
:102640003F924F925F926F927F928F929F92AF9242
:10265000BF92CF92DF92EF92FF920F931F93CF938F
:10266000DF93CDB7DEB7CA1BDB0B0FB6F894DEBF26
:102670000FBECDBF09942A88398848885F846E844C
:102680007D848C849B84AA84B984C884DF80EE8096
:10269000FD800C811B81AA81B981CE0FD11D0FB69F
:1026A000F894DEBF0FBECDBFED010895F894FFCFC3
:1026B000AC0CC90CD70CDF0CE70CEF0CFA0C050DB9
:1026C000F7EFDFBF7F0000DB012000FC60DAF2667D
:1026D000B6BEE0FEF6000040400000004000008072
:1026E0003F4F4F4100414F4F004F44440044444F3F
:1026F0000044444400414F41004D616E6F65757662
:1027000072652031004D616E6F657576726520329D
:10271000004D616E6F65757672652033004D616E98
:102720006F65757672652034004D616E6F657576E4
:1027300072652035004D616E6F6575767265203665
:1027400000436F6D62696E6169736F6E206E6F6EAC
:10275000206576616C75656500444E4752004154B2
:10276000544E00204F4B200025750025690025633D
:10277000003031323334353637383961626364655D
:022780006600F1
:00000001FF
